{
  "address": "0xF82069c336f6Ca7F55aEa3B77037E5C0f6b120ff",
  "abi": [
    {
      "inputs": [],
      "stateMutability": "nonpayable",
      "type": "constructor"
    },
    {
      "anonymous": false,
      "inputs": [
        {
          "indexed": true,
          "internalType": "address",
          "name": "owner",
          "type": "address"
        },
        {
          "indexed": true,
          "internalType": "address",
          "name": "approved",
          "type": "address"
        },
        {
          "indexed": true,
          "internalType": "uint256",
          "name": "tokenId",
          "type": "uint256"
        }
      ],
      "name": "Approval",
      "type": "event"
    },
    {
      "anonymous": false,
      "inputs": [
        {
          "indexed": true,
          "internalType": "address",
          "name": "owner",
          "type": "address"
        },
        {
          "indexed": true,
          "internalType": "address",
          "name": "operator",
          "type": "address"
        },
        {
          "indexed": false,
          "internalType": "bool",
          "name": "approved",
          "type": "bool"
        }
      ],
      "name": "ApprovalForAll",
      "type": "event"
    },
    {
      "anonymous": false,
      "inputs": [
        {
          "indexed": true,
          "internalType": "address",
          "name": "previousOwner",
          "type": "address"
        },
        {
          "indexed": true,
          "internalType": "address",
          "name": "newOwner",
          "type": "address"
        }
      ],
      "name": "OwnershipTransferred",
      "type": "event"
    },
    {
      "anonymous": false,
      "inputs": [
        {
          "indexed": true,
          "internalType": "address",
          "name": "from",
          "type": "address"
        },
        {
          "indexed": true,
          "internalType": "address",
          "name": "to",
          "type": "address"
        },
        {
          "indexed": true,
          "internalType": "uint256",
          "name": "tokenId",
          "type": "uint256"
        }
      ],
      "name": "Transfer",
      "type": "event"
    },
    {
      "inputs": [],
      "name": "MAX_SUPPLY",
      "outputs": [
        {
          "internalType": "uint256",
          "name": "",
          "type": "uint256"
        }
      ],
      "stateMutability": "view",
      "type": "function"
    },
    {
      "inputs": [
        {
          "internalType": "address",
          "name": "to",
          "type": "address"
        },
        {
          "internalType": "uint256",
          "name": "tokenId",
          "type": "uint256"
        }
      ],
      "name": "approve",
      "outputs": [],
      "stateMutability": "nonpayable",
      "type": "function"
    },
    {
      "inputs": [
        {
          "internalType": "address",
          "name": "owner",
          "type": "address"
        }
      ],
      "name": "balanceOf",
      "outputs": [
        {
          "internalType": "uint256",
          "name": "",
          "type": "uint256"
        }
      ],
      "stateMutability": "view",
      "type": "function"
    },
    {
      "inputs": [],
      "name": "baseURI",
      "outputs": [
        {
          "internalType": "string",
          "name": "",
          "type": "string"
        }
      ],
      "stateMutability": "view",
      "type": "function"
    },
    {
      "inputs": [
        {
          "internalType": "uint256",
          "name": "_seed",
          "type": "uint256"
        }
      ],
      "name": "createFace",
      "outputs": [
        {
          "internalType": "string",
          "name": "",
          "type": "string"
        }
      ],
      "stateMutability": "nonpayable",
      "type": "function"
    },
    {
      "inputs": [
        {
          "internalType": "uint256",
          "name": "tokenId",
          "type": "uint256"
        }
      ],
      "name": "getApproved",
      "outputs": [
        {
          "internalType": "address",
          "name": "",
          "type": "address"
        }
      ],
      "stateMutability": "view",
      "type": "function"
    },
    {
      "inputs": [
        {
          "internalType": "uint256",
          "name": "id",
          "type": "uint256"
        }
      ],
      "name": "getFace",
      "outputs": [
        {
          "internalType": "string",
          "name": "",
          "type": "string"
        }
      ],
      "stateMutability": "view",
      "type": "function"
    },
    {
      "inputs": [],
      "name": "hasSaleStarted",
      "outputs": [
        {
          "internalType": "bool",
          "name": "",
          "type": "bool"
        }
      ],
      "stateMutability": "view",
      "type": "function"
    },
    {
      "inputs": [
        {
          "internalType": "address",
          "name": "owner",
          "type": "address"
        },
        {
          "internalType": "address",
          "name": "operator",
          "type": "address"
        }
      ],
      "name": "isApprovedForAll",
      "outputs": [
        {
          "internalType": "bool",
          "name": "",
          "type": "bool"
        }
      ],
      "stateMutability": "view",
      "type": "function"
    },
    {
      "inputs": [],
      "name": "name",
      "outputs": [
        {
          "internalType": "string",
          "name": "",
          "type": "string"
        }
      ],
      "stateMutability": "view",
      "type": "function"
    },
    {
      "inputs": [],
      "name": "owner",
      "outputs": [
        {
          "internalType": "address",
          "name": "",
          "type": "address"
        }
      ],
      "stateMutability": "view",
      "type": "function"
    },
    {
      "inputs": [
        {
          "internalType": "uint256",
          "name": "tokenId",
          "type": "uint256"
        }
      ],
      "name": "ownerOf",
      "outputs": [
        {
          "internalType": "address",
          "name": "",
          "type": "address"
        }
      ],
      "stateMutability": "view",
      "type": "function"
    },
    {
      "inputs": [],
      "name": "pauseSale",
      "outputs": [],
      "stateMutability": "nonpayable",
      "type": "function"
    },
    {
      "inputs": [],
      "name": "renounceOwnership",
      "outputs": [],
      "stateMutability": "nonpayable",
      "type": "function"
    },
    {
      "inputs": [
        {
          "internalType": "address",
          "name": "from",
          "type": "address"
        },
        {
          "internalType": "address",
          "name": "to",
          "type": "address"
        },
        {
          "internalType": "uint256",
          "name": "tokenId",
          "type": "uint256"
        }
      ],
      "name": "safeTransferFrom",
      "outputs": [],
      "stateMutability": "nonpayable",
      "type": "function"
    },
    {
      "inputs": [
        {
          "internalType": "address",
          "name": "from",
          "type": "address"
        },
        {
          "internalType": "address",
          "name": "to",
          "type": "address"
        },
        {
          "internalType": "uint256",
          "name": "tokenId",
          "type": "uint256"
        },
        {
          "internalType": "bytes",
          "name": "_data",
          "type": "bytes"
        }
      ],
      "name": "safeTransferFrom",
      "outputs": [],
      "stateMutability": "nonpayable",
      "type": "function"
    },
    {
      "inputs": [
        {
          "internalType": "address",
          "name": "operator",
          "type": "address"
        },
        {
          "internalType": "bool",
          "name": "approved",
          "type": "bool"
        }
      ],
      "name": "setApprovalForAll",
      "outputs": [],
      "stateMutability": "nonpayable",
      "type": "function"
    },
    {
      "inputs": [
        {
          "internalType": "string",
          "name": "baseURI_",
          "type": "string"
        }
      ],
      "name": "setBaseURI",
      "outputs": [],
      "stateMutability": "nonpayable",
      "type": "function"
    },
    {
      "inputs": [],
      "name": "startSale",
      "outputs": [],
      "stateMutability": "nonpayable",
      "type": "function"
    },
    {
      "inputs": [
        {
          "internalType": "bytes4",
          "name": "interfaceId",
          "type": "bytes4"
        }
      ],
      "name": "supportsInterface",
      "outputs": [
        {
          "internalType": "bool",
          "name": "",
          "type": "bool"
        }
      ],
      "stateMutability": "view",
      "type": "function"
    },
    {
      "inputs": [],
      "name": "symbol",
      "outputs": [
        {
          "internalType": "string",
          "name": "",
          "type": "string"
        }
      ],
      "stateMutability": "view",
      "type": "function"
    },
    {
      "inputs": [
        {
          "internalType": "uint256",
          "name": "index",
          "type": "uint256"
        }
      ],
      "name": "tokenByIndex",
      "outputs": [
        {
          "internalType": "uint256",
          "name": "",
          "type": "uint256"
        }
      ],
      "stateMutability": "view",
      "type": "function"
    },
    {
      "inputs": [
        {
          "internalType": "address",
          "name": "owner",
          "type": "address"
        },
        {
          "internalType": "uint256",
          "name": "index",
          "type": "uint256"
        }
      ],
      "name": "tokenOfOwnerByIndex",
      "outputs": [
        {
          "internalType": "uint256",
          "name": "",
          "type": "uint256"
        }
      ],
      "stateMutability": "view",
      "type": "function"
    },
    {
      "inputs": [
        {
          "internalType": "uint256",
          "name": "tokenId",
          "type": "uint256"
        }
      ],
      "name": "tokenURI",
      "outputs": [
        {
          "internalType": "string",
          "name": "",
          "type": "string"
        }
      ],
      "stateMutability": "view",
      "type": "function"
    },
    {
      "inputs": [],
      "name": "totalSupply",
      "outputs": [
        {
          "internalType": "uint256",
          "name": "",
          "type": "uint256"
        }
      ],
      "stateMutability": "view",
      "type": "function"
    },
    {
      "inputs": [
        {
          "internalType": "address",
          "name": "from",
          "type": "address"
        },
        {
          "internalType": "address",
          "name": "to",
          "type": "address"
        },
        {
          "internalType": "uint256",
          "name": "tokenId",
          "type": "uint256"
        }
      ],
      "name": "transferFrom",
      "outputs": [],
      "stateMutability": "nonpayable",
      "type": "function"
    },
    {
      "inputs": [
        {
          "internalType": "address",
          "name": "newOwner",
          "type": "address"
        }
      ],
      "name": "transferOwnership",
      "outputs": [],
      "stateMutability": "nonpayable",
      "type": "function"
    }
  ],
  "transactionHash": "0x4b39a6789ce4217c2c56430360f4e8bf953148593a02abf2bb36700342aa4638",
  "args": [],
  "solcInputHash": "1e2a56f0b31d86693aa7926c69d2cc14",
  "bytecode": "0x6080604052600e805460ff191690553480156200001b57600080fd5b50604080518082018252600a8152694173636969466163657360b01b60208083019182528351808501909452600384526220a9a360e91b9084015281519192916200006991600091620025fc565b5080516200007f906001906020840190620025fc565b5050506000620000946200023860201b60201c565b600a80546001600160a01b0319166001600160a01b038316908117909155604051919250906000907f8be0079c531659141344cd1fd0a4f28419497f9722a3daafe3b4186f6b6457e0908290a350620001286040518060400160405280602081526020017f68747470733a2f2f6170692e617363696966616365732e636f6d2f666163652f8152506200023c60201b60201c565b62000147603c62000141600a546001600160a01b031690565b620002b5565b5062000161601b62000141600a546001600160a01b031690565b506200017b602c62000141600a546001600160a01b031690565b5062000195604662000141600a546001600160a01b031690565b50620001af607462000141600a546001600160a01b031690565b50620001c9609e62000141600a546001600160a01b031690565b50620001e360dd62000141600a546001600160a01b031690565b50620001fd60de62000141600a546001600160a01b031690565b506200021760e962000141600a546001600160a01b031690565b506200023160ce62000141600a546001600160a01b031690565b50620027f4565b3390565b600a546001600160a01b031633146200029c5760405162461bcd60e51b815260206004820181905260248201527f4f776e61626c653a2063616c6c6572206973206e6f7420746865206f776e657260448201526064015b60405180910390fd5b8051620002b190600f906020840190620025fc565b5050565b6060620002ce600b6200039160201b620011521760201c565b82600c6000620002ea600b6200039a60201b6200115b1760201c565b81526020019081526020016000208190555062000313600b6200039a60201b6200115b1760201c565b600d600085815260200190815260200160002081905550600062000366600c60006200034b600b6200039a60201b6200115b1760201c565b8152602001908152602001600020546200039e60201b60201c565b90506200038a8362000384600b6200039a60201b6200115b1760201c565b62000437565b9392505050565b80546001019055565b5490565b6060600082604051602001620003b691815260200190565b60408051601f19818403018152919052805160209091012090506000620003dd826200058d565b90506000620003ec8362000db6565b90506000620003fb8462001dc1565b83518351602085810151818801516040519596506200041d9587930162002706565b604051602081830303815290604052945050505050919050565b6001600160a01b0382166200048f5760405162461bcd60e51b815260206004820181905260248201527f4552433732313a206d696e7420746f20746865207a65726f2061646472657373604482015260640162000293565b6000818152600260205260409020546001600160a01b031615620004f65760405162461bcd60e51b815260206004820152601c60248201527f4552433732313a20746f6b656e20616c7265616479206d696e74656400000000604482015260640162000293565b62000504600083836200229e565b6001600160a01b03821660009081526003602052604081208054600192906200052f9084906200274b565b909155505060008181526002602052604080822080546001600160a01b0319166001600160a01b03861690811790915590518392907fddf252ad1be2c89b69c2b068fc378daa952ba7f163c4a11628f55a4df523b3ef908290a45050565b620005976200268b565b604080516104a0810182526000610480820181815261044083019081528351602081810186528382526104608501919091529083528351608080820186526001828701818152600560fb1b60608086018290529185528851808a018a52838152602960f81b818801528587015285880194909452875180840189526004818a01818152631c7077a560e31b8385018190529083528a51808c018c528281526329efbe8960e01b818a01819052848a01919091528a8c01939093528a518087018c526002818d0181815261078560f31b8388015282528c51808e018e5281815261149f60f11b818c0152828b0152858c01919091528b518088018d526003818e01818152621b352560eb1b8389015282528d51808f018f528181526214eddb60e91b818d0152828c0152888d01919091528c518089018e52808e01858152631c52b60560e31b8289015281528d51808f018f528581526329e295af60e01b818d0152818c015260a08d01528c518089018e52808e01858152631df7978560e31b8289015281528d51808f018f528581526329efbc8f60e01b818d0152818c015260c08d01528c518089018e52808e018581526328efbe8960e01b8289015281528d51808f018f52858152808c0196909652808b019590955260e08c01949094528b518088018d52808d018781528187018a905281528c51808e018e528481526314f1c1c760e11b818c0152818b01526101008c01528b518088018d52808d018481526328e3808d60e01b8288015281528c51808e018e528481526329e3808d60e01b818c0152818b01526101208c01528b518088018d52808d01848152631c7077c560e31b8288015281528c51808e018e52600781526614f7df44f7df4f60c91b818c0152818b01526101408c01528b518088018d52808d01848152631cb0f70560e31b8288015281528c51808e018e5284815263053cb0f760e31b818c0152818b01526101608c01528b518088018d52808d01878152818701999099529788528b51808d018d5283815263053c511160e31b818b0152888a01526101808b01979097528a518087018c52808c01838152631c15b4e560e31b8287015281528b51808d018d5283815263053c15b560e31b818b0152818a01526101a08b01528a518087018c52808c018381526328e381a360e01b8287015281528b51808d018d528381526329e381a360e01b818b0152818a01526101c08b01528a518087018c52808c01888152610de560f31b8287015281528b51808d018d5288815261296f60f01b818b0152818a01526101e08b01528a518087018c52808c01868152605b60f81b8287015281528b51808d018d52868152605d60f81b818b0152818a01526102008b01528a518087018c52808c01868152607b60f81b8287015281528b51808d018d52958652607d60f81b868a0152808901959095526102208a019490945289518086018b52808b01828152631c70138560e31b8286018190529082528b51808d018d52838152630a78e02760e21b818b0152828a01526102408b01919091528a518087018c52808c01838152631c70146560e31b8287015281528b51808d018d528381526329e380a360e01b818b0152818a01526102608b01528a518087018c52808c01838152631c52d22560e31b8287015281528b51808d018d528381526329e2969160e01b818b0152818a01526102808b01528a518087018c52808c01838152818601969096529485528a51808c018c52828152630a78a52360e21b818a01819052868a01919091526102a08b01959095528a518087018c52808c01838152631c52920560e31b8287015281528b51808d018d52838152808a0196909652808901959095526102c08a019490945289518086018b52808b01878152611f9f60f21b8286015281528a51808c018c52878152613e3f60f11b818a0152818901526102e08a015289518086018b52808b01828152631c51504560e31b8286015281528a51808c018c528281526329e28a8360e01b818a0152818901526103008a015289518086018b52808b01828152631df791e560e31b8286015281528a51808c018c52828152630a7bef2f60e21b818a0152818901526103208a015289518086018b52808b01828152631c70730560e31b8286015281528a51808c018c5282815263e383982960e01b818a0152818901526103408a015289518086018b52808b01828152818501959095529384528951808b018b5281815263e3809c2960e01b818901528488015261036089019390935288518085018a52808a01828152620e380960ec1b8285015281528951808b018b5291825262e3809160e81b8288015280870191909152610380880152875180840189528089018381526328e0a9ad60e01b8284015281528851808a018a528381526329e0a9ad60e01b81880152818701526103a088015287518084018952808901838152631c52b34560e31b8284015281528851808a018a529283526329e2959d60e01b83870152808601929092526103c08701919091528651808301885260068189018181526538e0ef782f2f60d21b8385015282528851808a018a5290815265e0bcbdefbe8960d01b81870152818601526103e087015286518083018852808801848152610f1f60f21b82840152815287518089018952848152613e1f60f11b818701528186015261040087015286519182018752818701838152611f1f60f21b9183018290528252865180880190975291865285830191909152908101939093526104208201929092529062000d86602285620027bd565b905081816022811062000da957634e487b7160e01b600052603260045260246000fd5b6020020151949350505050565b62000dc06200268b565b6000604051806106600160405280604051806040016040528060405180602001604052806000815250815260200160405180602001604052806000815250815250815260200160405180604001604052806040518060400160405280600281526020016130ad60f21b8152508152602001604051806040016040528060018152602001600360fd1b8152508152508152602001604051806040016040528060405180604001604052806003815260200162e2979560e81b815250815260200160405180604001604052806003815260200162e2979560e81b8152508152508152602001604051806040016040528060405180604001604052806003815260200162e289a760e81b8152508152602001604051806040016040528060038152602001627144d360e91b815250815250815260200160405180604001604052806040518060400160405280600381526020016271464960e91b81525081526020016040518060400160405280600381526020016271464960e91b8152508152508152602001604051806040016040528060405180604001604052806003815260200162efbfa360e81b815250815260200160405180604001604052806003815260200162efbfa360e81b815250815250815260200160405180604001604052806040518060400160405280600381526020016271405160e91b81525081526020016040518060400160405280600381526020016271405160e91b81525081525081526020016040518060400160405280604051806040016040528060028152602001610c2b60f41b8152508152602001604051806040016040528060028152602001610c2b60f41b815250815250815260200160405180604001604052806040518060400160405280600381526020016277de5f60e91b81525081526020016040518060400160405280600381526020016277de5f60e91b8152508152508152602001604051806040016040528060405180604001604052806003815260200162e29ca760e81b815250815260200160405180604001604052806003815260200162e29ca760e81b8152508152508152602001604051806040016040528060405180604001604052806003815260200162e29caf60e81b815250815260200160405180604001604052806003815260200162e29caf60e81b8152508152508152602001604051806040016040528060405180604001604052806005815260200164e280a2cc8160d81b81525081526020016040518060400160405280600581526020016401c501459960df1b81525081525081526020016040518060400160405280604051806040016040528060018152602001601560f91b8152508152602001604051806040016040528060018152602001601560f91b81525081525081526020016040518060400160405280604051806040016040528060018152602001601560fa1b8152508152602001604051806040016040528060018152602001601560fa1b8152508152508152602001604051806040016040528060405180604001604052806002815260200161cb8360f01b81525081526020016040518060400160405280600281526020016165c160f11b8152508152508152602001604051806040016040528060405180604001604052806006815260200165ea92a6e0bab560d01b815250815260200160405180604001604052806006815260200165ea92a6e0bab560d01b8152508152508152602001604051806040016040528060405180604001604052806003815260200162e29d9b60e81b815250815260200160405180604001604052806003815260200162e29d9b60e81b815250815250815260200160405180604001604052806040518060400160405280600281526020016130ab60f21b81525081526020016040518060400160405280600281526020016130ab60f21b8152508152508152602001604051806040016040528060405180604001604052806003815260200162efbda560e81b815250815260200160405180604001604052806003815260200162efbda560e81b8152508152508152602001604051806040016040528060405180604001604052806003815260200162386d6560ea1b815250815260200160405180604001604052806003815260200162386d6560ea1b815250815250815260200160405180604001604052806040518060400160405280600381526020016277dfd160e91b81525081526020016040518060400160405280600381526020016277dfd160e91b815250815250815260200160405180604001604052806040518060400160405280600381526020016201c50360ef1b81525081526020016040518060400160405280600381526020016201c50360ef1b8152508152508152602001604051806040016040528060405180604001604052806002815260200161cb9960f01b815250815260200160405180604001604052806002815260200161cb9960f01b815250815250815260200160405180604001604052806040518060400160405280600281526020016133af60f21b81525081526020016040518060400160405280600281526020016133af60f21b81525081525081526020016040518060400160405280604051806040016040528060018152602001602d60f81b8152508152602001604051806040016040528060018152602001602d60f81b8152508152508152602001604051806040016040528060405180604001604052806005815260200164615a71405160d91b8152508152602001604051806040016040528060048152602001630714051360e51b8152508152508152602001604051806040016040528060405180604001604052806003815260200162e299a160e81b815250815260200160405180604001604052806003815260200162e299a160e81b8152508152508152602001604051806040016040528060405180604001604052806002815260200161cf8360f01b815250815260200160405180604001604052806002815260200161cf8360f01b815250815250815260200160405180604001604052806040518060400160405280600381526020016238a76960ea1b81525081526020016040518060400160405280600381526020016238a76960ea1b81525081525081526020016040518060400160405280604051806040016040528060038152602001621d711160eb1b8152508152602001604051806040016040528060038152602001621d711160eb1b8152508152508152602001604051806040016040528060405180604001604052806003815260200162e297a360e81b815250815260200160405180604001604052806003815260200162714bd160e91b81525081525081526020016040518060400160405280604051806040016040528060018152602001600360fd1b81525081526020016040518060400160405280600281526020016130ad60f21b815250815250815260200160405180604001604052806040518060400160405280600381526020016238a5af60ea1b81525081526020016040518060400160405280600381526020016238a5af60ea1b8152508152508152602001604051806040016040528060405180604001604052806002815260200161675360f11b815250815260200160405180604001604052806002815260200161675360f11b8152508152508152602001604051806040016040528060405180604001604052806003815260200162e0b99160e81b815250815260200160405180604001604052806003815260200162e0b99160e81b8152508152508152602001604051806040016040528060405180604001604052806002815260200161195360f31b815250815260200160405180604001604052806002815260200161195360f31b8152508152508152602001604051806040016040528060405180604001604052806003815260200162e0b2a560e81b815250815260200160405180604001604052806003815260200162e0b2a560e81b815250815250815260200160405180604001604052806040518060400160405280600381526020016207058560ed1b81525081526020016040518060400160405280600381526020016207058560ed1b8152508152508152602001604051806040016040528060405180604001604052806003815260200162e0b2a560e81b815250815260200160405180604001604052806003815260200162e0b2a560e81b8152508152508152602001604051806040016040528060405180604001604052806003815260200162e295af60e81b8152508152602001604051806040016040528060038152602001620e295b60ec1b8152508152508152602001604051806040016040528060405180604001604052806003815260200162e295a560e81b815250815260200160405180604001604052806003815260200162e295a560e81b8152508152508152602001604051806040016040528060405180604001604052806002815260200161c39760f01b815250815260200160405180604001604052806002815260200161c39760f01b8152508152508152602001604051806040016040528060405180604001604052806003815260200162efbc8b60e81b815250815260200160405180604001604052806003815260200162efbc8b60e81b81525081525081526020016040518060400160405280604051806040016040528060018152602001601f60f91b8152508152602001604051806040016040528060018152602001600f60fa1b8152508152508152602001604051806040016040528060405180604001604052806002815260200161cb8760f01b815250815260200160405180604001604052806002815260200161cb8760f01b8152508152508152602001604051806040016040528060405180604001604052806003815260200162077de560ed1b815250815260200160405180604001604052806003815260200162077de560ed1b815250815250815260200160405180604001604052806040518060400160405280600381526020016201c32760ef1b81525081526020016040518060400160405280600381526020016201c32760ef1b815250815250815260200160405180604001604052806040518060400160405280600581526020016401c501459960df1b815250815260200160405180604001604052806005815260200164e280a2cc8160d81b815250815250815260200160405180604001604052806040518060400160405280600381526020016238a5e560ea1b81525081526020016040518060400160405280600381526020016238a5e560ea1b815250815250815260200160405180604001604052806040518060400160405280600381526020016207059560ed1b81525081526020016040518060400160405280600381526020016207059560ed1b8152508152508152602001604051806040016040528060405180604001604052806003815260200162e2978f60e81b815250815260200160405180604001604052806003815260200162e2978f60e81b8152508152508152509050600060338462001d9e9190620027bd565b905081816033811062000da957634e487b7160e01b600052603260045260246000fd5b604080516105a081018252600061058082018181528252825180840184526001808252601760f91b6020838101919091528085019290925284518086018652818152605f60f81b818401528486015284518086018652818152602d60f81b8184015260608581019190915285518087018752600380825262e296bd60e81b8286015260808701919091528651808801885281815262e3878160e81b8186015260a08701528651808801885281815262e1b4a560e81b81860181905260c088019190915287518089018952600280825261cf8960f01b8288015260e08901919091528851808a018a5283815262e280bf60e81b818801526101008901528851808a018a528381526277dc5b60e91b818801526101208901528851808a018a5283815262e297a160e81b818801526101408901528851808a018a5283815262725d5d60e91b818801526101608901528851808a018a528381526201c51160ef1b818801526101808901528851808a018a526006815265e280bfe280bf60d01b818801526101a08901528851808a018a528381526271c1d760e91b818801526101c08901528851808a018a5283815262e296bf60e81b818801526101e08901528851808a018a528381526270cbd160e91b818801526102008901528851808a018a5283815262ea92b360e81b818801526102208901528851808a018a52818152616b4560f11b818801526102408901528851808a018a5281815261ceb560f01b818801526102608901528851808a018a5281815261d0b760f01b818801526102808901528851808a018a5281815261342560f21b818801526102a08901528851808a018a52858152600360fc1b818801526102c08901528851808a018a52838152623bee6360ea1b818801526102e08901528851808a018a52838152621c707360eb1b818801526103008901528851808a018a528381526271464960e91b818801526103208901528851808a018a528381526273cdc560e91b818801526103408901528851808a018a5283815262e79abf60e81b818801526103608901528851808a018a5283815262e296b360e81b818801526103808901528851808a018a5283815262efb98f60e81b818801526103a08901528851808a018a5283815262efbe9b60e81b818801526103c08901528851808a018a52858152602f60f91b818801526103e08901528851808a018a52948552607760f81b858701526104008801949094528751808901895282815262e296a160e81b818701526104208801528751808901895282815262efb8bf60e81b8187015261044088015287518089018952828152623bef6960ea1b81870152610460880152875180890189528281526277decf60e91b81870152610480880152875180890189528281526271c04160e91b818701526104a08801528751808901895284815261654b60f11b818701526104c088015287518089018952828152808601919091526104e087015286518088018852600581526428efbdb42960d81b818601526105008701528651808801885283815261c39760f01b81860152610520870152865180880188529081526270c35d60e91b8185015261054086015285518087019096529085526119d360f31b918501919091526105608301939093526200227b602c85620027bd565b90508181602c811062000da957634e487b7160e01b600052603260045260246000fd5b620022b6838383620022bb60201b6200115f1760201c565b505050565b620022d3838383620022b660201b6200061d1760201c565b6001600160a01b03831662002331576200232b81600880546000838152600960205260408120829055600182018355919091527ff3f7a9fe364faab93b216da50a3214154f22a0a2b415b23a84c8169e8b636ee30155565b62002357565b816001600160a01b0316836001600160a01b031614620023575762002357838262002397565b6001600160a01b0382166200237157620022b68162002444565b826001600160a01b0316826001600160a01b031614620022b657620022b6828262002522565b60006001620023b1846200257360201b62000a961760201c565b620023bd919062002766565b60008381526007602052604090205490915080821462002411576001600160a01b03841660009081526006602090815260408083208584528252808320548484528184208190558352600790915290208190555b5060009182526007602090815260408084208490556001600160a01b039094168352600681528383209183525290812055565b600854600090620024589060019062002766565b600083815260096020526040812054600880549394509092849081106200248f57634e487b7160e01b600052603260045260246000fd5b906000526020600020015490508060088381548110620024bf57634e487b7160e01b600052603260045260246000fd5b60009182526020808320909101929092558281526009909152604080822084905585825281205560088054806200250657634e487b7160e01b600052603160045260246000fd5b6001900381819060005260206000200160009055905550505050565b60006200253a836200257360201b62000a961760201c565b6001600160a01b039093166000908152600660209081526040808320868452825280832085905593825260079052919091209190915550565b60006001600160a01b038216620025e05760405162461bcd60e51b815260206004820152602a60248201527f4552433732313a2062616c616e636520717565727920666f7220746865207a65604482015269726f206164647265737360b01b606482015260840162000293565b506001600160a01b031660009081526003602052604090205490565b8280546200260a9062002780565b90600052602060002090601f0160209004810192826200262e576000855562002679565b82601f106200264957805160ff191683800117855562002679565b8280016001018555821562002679579182015b82811115620026795782518255916020019190600101906200265c565b5062002687929150620026b3565b5090565b60405180604001604052806002905b60608152602001906001900390816200269a5790505090565b5b80821115620026875760008155600101620026b4565b60008151815b81811015620026ec5760208185018101518683015201620026d0565b81811115620026fb5782828601525b509290920192915050565b60006200274062002739620027326200272b62002724868c620026ca565b8a620026ca565b88620026ca565b86620026ca565b84620026ca565b979650505050505050565b60008219821115620027615762002761620027de565b500190565b6000828210156200277b576200277b620027de565b500390565b600181811c908216806200279557607f821691505b60208210811415620027b757634e487b7160e01b600052602260045260246000fd5b50919050565b600082620027d957634e487b7160e01b81526012600452602481fd5b500690565b634e487b7160e01b600052601160045260246000fd5b61402880620028046000396000f3fe608060405234801561001057600080fd5b50600436106101b95760003560e01c80636275e9f2116100f9578063a22cb46511610097578063c87b56dd11610071578063c87b56dd1461035a578063e985e9c51461036d578063f2fde38b146103a9578063f4297d4b146103bc57600080fd5b8063a22cb4651461032c578063b66a0e5d1461033f578063b88d4fde1461034757600080fd5b806370a08231116100d357806370a08231146102f8578063715018a61461030b5780638da5cb5b1461031357806395d89b411461032457600080fd5b80636275e9f2146102ca5780636352211e146102dd5780636c0360eb146102f057600080fd5b806323b872dd1161016657806342842e0e1161014057806342842e0e146102895780634f6ccce71461029c57806355367ba9146102af57806355f804b3146102b757600080fd5b806323b872dd1461025a5780632f745c591461026d57806332cb6b0c1461028057600080fd5b8063095ea7b311610197578063095ea7b31461022657806318160ddd1461023b5780631c8b232d1461024d57600080fd5b806301ffc9a7146101be57806306fdde03146101e6578063081812fc146101fb575b600080fd5b6101d16101cc366004613d3c565b6103cf565b60405190151581526020015b60405180910390f35b6101ee6103e0565b6040516101dd9190613ed4565b61020e610209366004613dba565b610472565b6040516001600160a01b0390911681526020016101dd565b610239610234366004613d13565b61050c565b005b6008545b6040519081526020016101dd565b600e546101d19060ff1681565b610239610268366004613c25565b610622565b61023f61027b366004613d13565b6106a9565b61023f61138881565b610239610297366004613c25565b610751565b61023f6102aa366004613dba565b61076c565b61023961081e565b6102396102c5366004613d74565b610884565b6101ee6102d8366004613dba565b6108f5565b61020e6102eb366004613dba565b61097d565b6101ee610a08565b61023f610306366004613bd9565b610a96565b610239610b30565b600a546001600160a01b031661020e565b6101ee610bd4565b61023961033a366004613cd9565b610be3565b610239610ca8565b610239610355366004613c60565b610d11565b6101ee610368366004613dba565b610d9f565b6101d161037b366004613bf3565b6001600160a01b03918216600090815260056020908152604080832093909416825291909152205460ff1690565b6102396103b7366004613bd9565b610e88565b6101ee6103ca366004613dba565b610fba565b60006103da82611217565b92915050565b6060600080546103ef90613f56565b80601f016020809104026020016040519081016040528092919081815260200182805461041b90613f56565b80156104685780601f1061043d57610100808354040283529160200191610468565b820191906000526020600020905b81548152906001019060200180831161044b57829003601f168201915b5050505050905090565b6000818152600260205260408120546001600160a01b03166104f05760405162461bcd60e51b815260206004820152602c60248201527f4552433732313a20617070726f76656420717565727920666f72206e6f6e657860448201526b34b9ba32b73a103a37b5b2b760a11b60648201526084015b60405180910390fd5b506000908152600460205260409020546001600160a01b031690565b60006105178261097d565b9050806001600160a01b0316836001600160a01b031614156105855760405162461bcd60e51b815260206004820152602160248201527f4552433732313a20617070726f76616c20746f2063757272656e74206f776e656044820152603960f91b60648201526084016104e7565b336001600160a01b03821614806105a157506105a1813361037b565b6106135760405162461bcd60e51b815260206004820152603860248201527f4552433732313a20617070726f76652063616c6c6572206973206e6f74206f7760448201527f6e6572206e6f7220617070726f76656420666f7220616c6c000000000000000060648201526084016104e7565b61061d838361123c565b505050565b61062c33826112aa565b61069e5760405162461bcd60e51b815260206004820152603160248201527f4552433732313a207472616e736665722063616c6c6572206973206e6f74206f60448201527f776e6572206e6f7220617070726f76656400000000000000000000000000000060648201526084016104e7565b61061d83838361139d565b60006106b483610a96565b82106107285760405162461bcd60e51b815260206004820152602b60248201527f455243373231456e756d657261626c653a206f776e657220696e646578206f7560448201527f74206f6620626f756e647300000000000000000000000000000000000000000060648201526084016104e7565b506001600160a01b03919091166000908152600660209081526040808320938352929052205490565b61061d83838360405180602001604052806000815250610d11565b600061077760085490565b82106107eb5760405162461bcd60e51b815260206004820152602c60248201527f455243373231456e756d657261626c653a20676c6f62616c20696e646578206f60448201527f7574206f6620626f756e6473000000000000000000000000000000000000000060648201526084016104e7565b6008828154811061080c57634e487b7160e01b600052603260045260246000fd5b90600052602060002001549050919050565b600a546001600160a01b031633146108785760405162461bcd60e51b815260206004820181905260248201527f4f776e61626c653a2063616c6c6572206973206e6f7420746865206f776e657260448201526064016104e7565b600e805460ff19169055565b600a546001600160a01b031633146108de5760405162461bcd60e51b815260206004820181905260248201527f4f776e61626c653a2063616c6c6572206973206e6f7420746865206f776e657260448201526064016104e7565b80516108f190600f906020840190613a87565b5050565b6000818152600260205260409020546060906001600160a01b031661095c5760405162461bcd60e51b815260206004820152601a60248201527f4552433732313a20546f6b656e206973206e6f7420657869737400000000000060448201526064016104e7565b6000828152600c6020526040812054906109758261155c565b949350505050565b6000818152600260205260408120546001600160a01b0316806103da5760405162461bcd60e51b815260206004820152602960248201527f4552433732313a206f776e657220717565727920666f72206e6f6e657869737460448201527f656e7420746f6b656e000000000000000000000000000000000000000000000060648201526084016104e7565b600f8054610a1590613f56565b80601f0160208091040260200160405190810160405280929190818152602001828054610a4190613f56565b8015610a8e5780601f10610a6357610100808354040283529160200191610a8e565b820191906000526020600020905b815481529060010190602001808311610a7157829003601f168201915b505050505081565b60006001600160a01b038216610b145760405162461bcd60e51b815260206004820152602a60248201527f4552433732313a2062616c616e636520717565727920666f7220746865207a6560448201527f726f20616464726573730000000000000000000000000000000000000000000060648201526084016104e7565b506001600160a01b031660009081526003602052604090205490565b600a546001600160a01b03163314610b8a5760405162461bcd60e51b815260206004820181905260248201527f4f776e61626c653a2063616c6c6572206973206e6f7420746865206f776e657260448201526064016104e7565b600a546040516000916001600160a01b0316907f8be0079c531659141344cd1fd0a4f28419497f9722a3daafe3b4186f6b6457e0908390a3600a80546001600160a01b0319169055565b6060600180546103ef90613f56565b6001600160a01b038216331415610c3c5760405162461bcd60e51b815260206004820152601960248201527f4552433732313a20617070726f766520746f2063616c6c65720000000000000060448201526064016104e7565b3360008181526005602090815260408083206001600160a01b03871680855290835292819020805460ff191686151590811790915590519081529192917f17307eab39ab6107e8899845ad3d59bd9653f200f220920489ca2b5937696c31910160405180910390a35050565b600a546001600160a01b03163314610d025760405162461bcd60e51b815260206004820181905260248201527f4f776e61626c653a2063616c6c6572206973206e6f7420746865206f776e657260448201526064016104e7565b600e805460ff19166001179055565b610d1b33836112aa565b610d8d5760405162461bcd60e51b815260206004820152603160248201527f4552433732313a207472616e736665722063616c6c6572206973206e6f74206f60448201527f776e6572206e6f7220617070726f76656400000000000000000000000000000060648201526084016104e7565b610d99848484846115ed565b50505050565b6000818152600260205260409020546060906001600160a01b0316610e2c5760405162461bcd60e51b815260206004820152602f60248201527f4552433732314d657461646174613a2055524920717565727920666f72206e6f60448201527f6e6578697374656e7420746f6b656e000000000000000000000000000000000060648201526084016104e7565b6000610e36611676565b90506000815111610e565760405180602001604052806000815250610e81565b80610e6084611685565b604051602001610e71929190613dfe565b6040516020818303038152906040525b9392505050565b600a546001600160a01b03163314610ee25760405162461bcd60e51b815260206004820181905260248201527f4f776e61626c653a2063616c6c6572206973206e6f7420746865206f776e657260448201526064016104e7565b6001600160a01b038116610f5e5760405162461bcd60e51b815260206004820152602660248201527f4f776e61626c653a206e6577206f776e657220697320746865207a65726f206160448201527f646472657373000000000000000000000000000000000000000000000000000060648201526084016104e7565b600a546040516001600160a01b038084169216907f8be0079c531659141344cd1fd0a4f28419497f9722a3daafe3b4186f6b6457e090600090a3600a80546001600160a01b0319166001600160a01b0392909216919091179055565b600e5460609060ff1615156001146110145760405162461bcd60e51b815260206004820152601360248201527f53616c65206861736e277420737461727465640000000000000000000000000060448201526064016104e7565b611388611020600b5490565b106110935760405162461bcd60e51b815260206004820152603560248201527f53616c652068617320656e6465642c20796f752063616e207374696c6c20627560448201527f79206f6e207365636f6e64617279206d61726b6574000000000000000000000060648201526084016104e7565b60008242336110a1600b5490565b6040805160208101959095528401929092526bffffffffffffffffffffffff19606091821b1690830152607482015260940160408051601f1981840301815291815281516020928301206000818152600d909352912054909150156111485760405162461bcd60e51b815260206004820152601960248201527f4552433732313a207365656420616c726561647920757365640000000000000060448201526064016104e7565b610e8181336117b7565b80546001019055565b5490565b6001600160a01b0383166111ba576111b581600880546000838152600960205260408120829055600182018355919091527ff3f7a9fe364faab93b216da50a3214154f22a0a2b415b23a84c8169e8b636ee30155565b6111dd565b816001600160a01b0316836001600160a01b0316146111dd576111dd8382611832565b6001600160a01b0382166111f45761061d816118cf565b826001600160a01b0316826001600160a01b03161461061d5761061d82826119a8565b60006001600160e01b0319821663780e9d6360e01b14806103da57506103da826119ec565b600081815260046020526040902080546001600160a01b0319166001600160a01b03841690811790915581906112718261097d565b6001600160a01b03167f8c5be1e5ebec7d5bd14f71427d1e84f3dd0314c0f7b2291e5b200ac8c7c3b92560405160405180910390a45050565b6000818152600260205260408120546001600160a01b03166113235760405162461bcd60e51b815260206004820152602c60248201527f4552433732313a206f70657261746f7220717565727920666f72206e6f6e657860448201526b34b9ba32b73a103a37b5b2b760a11b60648201526084016104e7565b600061132e8361097d565b9050806001600160a01b0316846001600160a01b031614806113695750836001600160a01b031661135e84610472565b6001600160a01b0316145b8061097557506001600160a01b0380821660009081526005602090815260408083209388168352929052205460ff16610975565b826001600160a01b03166113b08261097d565b6001600160a01b03161461142c5760405162461bcd60e51b815260206004820152602960248201527f4552433732313a207472616e73666572206f6620746f6b656e2074686174206960448201527f73206e6f74206f776e000000000000000000000000000000000000000000000060648201526084016104e7565b6001600160a01b03821661148e5760405162461bcd60e51b8152602060048201526024808201527f4552433732313a207472616e7366657220746f20746865207a65726f206164646044820152637265737360e01b60648201526084016104e7565b611499838383611a3c565b6114a460008261123c565b6001600160a01b03831660009081526003602052604081208054600192906114cd908490613f13565b90915550506001600160a01b03821660009081526003602052604081208054600192906114fb908490613ee7565b909155505060008181526002602052604080822080546001600160a01b0319166001600160a01b0386811691821790925591518493918716917fddf252ad1be2c89b69c2b068fc378daa952ba7f163c4a11628f55a4df523b3ef91a4505050565b606060008260405160200161157391815260200190565b6040516020818303038152906040528051906020012060001c9050600061159982611a47565b905060006115a6836122af565b905060006115b3846132cd565b83518351602085810151818801516040519596506115d395879301613e2d565b604051602081830303815290604052945050505050919050565b6115f884848461139d565b611604848484846137d6565b610d995760405162461bcd60e51b815260206004820152603260248201527f4552433732313a207472616e7366657220746f206e6f6e20455243373231526560448201527f63656976657220696d706c656d656e746572000000000000000000000000000060648201526084016104e7565b6060600f80546103ef90613f56565b6060816116a95750506040805180820190915260018152600360fc1b602082015290565b8160005b81156116d357806116bd81613f91565b91506116cc9050600a83613eff565b91506116ad565b60008167ffffffffffffffff8111156116fc57634e487b7160e01b600052604160045260246000fd5b6040519080825280601f01601f191660200182016040528015611726576020820181803683370190505b5090505b84156109755761173b600183613f13565b9150611748600a86613fac565b611753906030613ee7565b60f81b81838151811061177657634e487b7160e01b600052603260045260246000fd5b60200101907effffffffffffffffffffffffffffffffffffffffffffffffffffffffffffff1916908160001a9053506117b0600a86613eff565b945061172a565b60606117c7600b80546001019055565b82600c60006117d5600b5490565b8152602081019190915260400160002055600b546000848152600d602052604081209190915561181e600c8261180a600b5490565b81526020019081526020016000205461155c565b9050610e818361182d600b5490565b613939565b6000600161183f84610a96565b6118499190613f13565b60008381526007602052604090205490915080821461189c576001600160a01b03841660009081526006602090815260408083208584528252808320548484528184208190558352600790915290208190555b5060009182526007602090815260408084208490556001600160a01b039094168352600681528383209183525290812055565b6008546000906118e190600190613f13565b6000838152600960205260408120546008805493945090928490811061191757634e487b7160e01b600052603260045260246000fd5b90600052602060002001549050806008838154811061194657634e487b7160e01b600052603260045260246000fd5b600091825260208083209091019290925582815260099091526040808220849055858252812055600880548061198c57634e487b7160e01b600052603160045260246000fd5b6001900381819060005260206000200160009055905550505050565b60006119b383610a96565b6001600160a01b039093166000908152600660209081526040808320868452825280832085905593825260079052919091209190915550565b60006001600160e01b031982166380ac58cd60e01b1480611a1d57506001600160e01b03198216635b5e139f60e01b145b806103da57506301ffc9a760e01b6001600160e01b03198316146103da565b61061d83838361115f565b611a4f613b0b565b604080516104a0810182526000610480820181815261044083019081528351602081810186528382526104608501919091529083528351608080820186526001828701818152600560fb1b60608086018290529185528851808a018a52838152602960f81b818801528587015285880194909452875180840189526004818a01818152631c7077a560e31b8385018190529083528a51808c018c528281526329efbe8960e01b818a01819052848a01919091528a8c01939093528a518087018c526002818d0181815261078560f31b8388015282528c51808e018e5281815261149f60f11b818c0152828b0152858c01919091528b518088018d526003818e01818152621b352560eb1b8389015282528d51808f018f528181526214eddb60e91b818d0152828c0152888d01919091528c518089018e52808e01858152631c52b60560e31b8289015281528d51808f018f528581526329e295af60e01b818d0152818c015260a08d01528c518089018e52808e01858152631df7978560e31b8289015281528d51808f018f528581526329efbc8f60e01b818d0152818c015260c08d01528c518089018e52808e018581526328efbe8960e01b8289015281528d51808f018f52858152808c0196909652808b019590955260e08c01949094528b518088018d52808d018781528187018a905281528c51808e018e528481526314f1c1c760e11b818c0152818b01526101008c01528b518088018d52808d018481526328e3808d60e01b8288015281528c51808e018e528481526329e3808d60e01b818c0152818b01526101208c01528b518088018d52808d01848152631c7077c560e31b8288015281528c51808e018e52600781527f29efbe89efbe9e00000000000000000000000000000000000000000000000000818c0152818b01526101408c01528b518088018d52808d01848152631cb0f70560e31b8288015281528c51808e018e5284815263053cb0f760e31b818c0152818b01526101608c01528b518088018d52808d01878152818701999099529788528b51808d018d5283815263053c511160e31b818b0152888a01526101808b01979097528a518087018c52808c01838152631c15b4e560e31b8287015281528b51808d018d5283815263053c15b560e31b818b0152818a01526101a08b01528a518087018c52808c018381526328e381a360e01b8287015281528b51808d018d528381526329e381a360e01b818b0152818a01526101c08b01528a518087018c52808c01888152610de560f31b8287015281528b51808d018d5288815261296f60f01b818b0152818a01526101e08b01528a518087018c52808c01868152605b60f81b8287015281528b51808d018d52868152605d60f81b818b0152818a01526102008b01528a518087018c52808c01868152607b60f81b8287015281528b51808d018d52958652607d60f81b868a0152808901959095526102208a019490945289518086018b52808b01828152631c70138560e31b8286018190529082528b51808d018d52838152630a78e02760e21b818b0152828a01526102408b01919091528a518087018c52808c01838152631c70146560e31b8287015281528b51808d018d528381526329e380a360e01b818b0152818a01526102608b01528a518087018c52808c01838152631c52d22560e31b8287015281528b51808d018d528381526329e2969160e01b818b0152818a01526102808b01528a518087018c52808c01838152818601969096529485528a51808c018c52828152630a78a52360e21b818a01819052868a01919091526102a08b01959095528a518087018c52808c01838152631c52920560e31b8287015281528b51808d018d52838152808a0196909652808901959095526102c08a019490945289518086018b52808b01878152611f9f60f21b8286015281528a51808c018c52878152613e3f60f11b818a0152818901526102e08a015289518086018b52808b01828152631c51504560e31b8286015281528a51808c018c528281526329e28a8360e01b818a0152818901526103008a015289518086018b52808b01828152631df791e560e31b8286015281528a51808c018c52828152630a7bef2f60e21b818a0152818901526103208a015289518086018b52808b01828152631c70730560e31b8286015281528a51808c018c5282815263e383982960e01b818a0152818901526103408a015289518086018b52808b01828152818501959095529384528951808b018b5281815263e3809c2960e01b818901528488015261036089019390935288518085018a52808a01828152620e380960ec1b8285015281528951808b018b5291825262e3809160e81b8288015280870191909152610380880152875180840189528089018381526328e0a9ad60e01b8284015281528851808a018a528381526329e0a9ad60e01b81880152818701526103a088015287518084018952808901838152631c52b34560e31b8284015281528851808a018a529283526329e2959d60e01b83870152808601929092526103c08701919091528651808301885260068189018181527fe383bde0bcbc00000000000000000000000000000000000000000000000000008385015282528851808a018a529081527fe0bcbdefbe89000000000000000000000000000000000000000000000000000081870152818601526103e087015286518083018852808801848152610f1f60f21b82840152815287518089018952848152613e1f60f11b818701528186015261040087015286519182018752818701838152611f1f60f21b91830182905282528651808801909752918652858301919091529081019390935261042082019290925290612280602285613fac565b90508181602281106122a257634e487b7160e01b600052603260045260246000fd5b6020020151949350505050565b6122b7613b0b565b6000604051806106600160405280604051806040016040528060405180602001604052806000815250815260200160405180602001604052806000815250815250815260200160405180604001604052806040518060400160405280600281526020016130ad60f21b8152508152602001604051806040016040528060018152602001600360fd1b8152508152508152602001604051806040016040528060405180604001604052806003815260200162e2979560e81b815250815260200160405180604001604052806003815260200162e2979560e81b8152508152508152602001604051806040016040528060405180604001604052806003815260200162e289a760e81b8152508152602001604051806040016040528060038152602001627144d360e91b815250815250815260200160405180604001604052806040518060400160405280600381526020016271464960e91b81525081526020016040518060400160405280600381526020016271464960e91b8152508152508152602001604051806040016040528060405180604001604052806003815260200162efbfa360e81b815250815260200160405180604001604052806003815260200162efbfa360e81b815250815250815260200160405180604001604052806040518060400160405280600381526020016271405160e91b81525081526020016040518060400160405280600381526020016271405160e91b81525081525081526020016040518060400160405280604051806040016040528060028152602001610c2b60f41b8152508152602001604051806040016040528060028152602001610c2b60f41b815250815250815260200160405180604001604052806040518060400160405280600381526020016277de5f60e91b81525081526020016040518060400160405280600381526020016277de5f60e91b8152508152508152602001604051806040016040528060405180604001604052806003815260200162e29ca760e81b815250815260200160405180604001604052806003815260200162e29ca760e81b8152508152508152602001604051806040016040528060405180604001604052806003815260200162e29caf60e81b815250815260200160405180604001604052806003815260200162e29caf60e81b8152508152508152602001604051806040016040528060405180604001604052806005815260200164e280a2cc8160d81b81525081526020016040518060400160405280600581526020016401c501459960df1b81525081525081526020016040518060400160405280604051806040016040528060018152602001601560f91b8152508152602001604051806040016040528060018152602001601560f91b81525081525081526020016040518060400160405280604051806040016040528060018152602001601560fa1b8152508152602001604051806040016040528060018152602001601560fa1b8152508152508152602001604051806040016040528060405180604001604052806002815260200161cb8360f01b81525081526020016040518060400160405280600281526020016165c160f11b8152508152508152602001604051806040016040528060405180604001604052806006815260200165ea92a6e0bab560d01b815250815260200160405180604001604052806006815260200165ea92a6e0bab560d01b8152508152508152602001604051806040016040528060405180604001604052806003815260200162e29d9b60e81b815250815260200160405180604001604052806003815260200162e29d9b60e81b815250815250815260200160405180604001604052806040518060400160405280600281526020016130ab60f21b81525081526020016040518060400160405280600281526020016130ab60f21b8152508152508152602001604051806040016040528060405180604001604052806003815260200162efbda560e81b815250815260200160405180604001604052806003815260200162efbda560e81b8152508152508152602001604051806040016040528060405180604001604052806003815260200162386d6560ea1b815250815260200160405180604001604052806003815260200162386d6560ea1b815250815250815260200160405180604001604052806040518060400160405280600381526020016277dfd160e91b81525081526020016040518060400160405280600381526020016277dfd160e91b815250815250815260200160405180604001604052806040518060400160405280600381526020016201c50360ef1b81525081526020016040518060400160405280600381526020016201c50360ef1b8152508152508152602001604051806040016040528060405180604001604052806002815260200161cb9960f01b815250815260200160405180604001604052806002815260200161cb9960f01b815250815250815260200160405180604001604052806040518060400160405280600281526020016133af60f21b81525081526020016040518060400160405280600281526020016133af60f21b81525081525081526020016040518060400160405280604051806040016040528060018152602001602d60f81b8152508152602001604051806040016040528060018152602001602d60f81b815250815250815260200160405180604001604052806040518060400160405280600581526020017fc2b4e280a20000000000000000000000000000000000000000000000000000008152508152602001604051806040016040528060048152602001630714051360e51b8152508152508152602001604051806040016040528060405180604001604052806003815260200162e299a160e81b815250815260200160405180604001604052806003815260200162e299a160e81b8152508152508152602001604051806040016040528060405180604001604052806002815260200161cf8360f01b815250815260200160405180604001604052806002815260200161cf8360f01b815250815250815260200160405180604001604052806040518060400160405280600381526020016238a76960ea1b81525081526020016040518060400160405280600381526020016238a76960ea1b81525081525081526020016040518060400160405280604051806040016040528060038152602001621d711160eb1b8152508152602001604051806040016040528060038152602001621d711160eb1b8152508152508152602001604051806040016040528060405180604001604052806003815260200162e297a360e81b815250815260200160405180604001604052806003815260200162714bd160e91b81525081525081526020016040518060400160405280604051806040016040528060018152602001600360fd1b81525081526020016040518060400160405280600281526020016130ad60f21b815250815250815260200160405180604001604052806040518060400160405280600381526020016238a5af60ea1b81525081526020016040518060400160405280600381526020016238a5af60ea1b8152508152508152602001604051806040016040528060405180604001604052806002815260200161675360f11b815250815260200160405180604001604052806002815260200161675360f11b8152508152508152602001604051806040016040528060405180604001604052806003815260200162e0b99160e81b815250815260200160405180604001604052806003815260200162e0b99160e81b8152508152508152602001604051806040016040528060405180604001604052806002815260200161195360f31b815250815260200160405180604001604052806002815260200161195360f31b8152508152508152602001604051806040016040528060405180604001604052806003815260200162e0b2a560e81b815250815260200160405180604001604052806003815260200162e0b2a560e81b815250815250815260200160405180604001604052806040518060400160405280600381526020016207058560ed1b81525081526020016040518060400160405280600381526020016207058560ed1b8152508152508152602001604051806040016040528060405180604001604052806003815260200162e0b2a560e81b815250815260200160405180604001604052806003815260200162e0b2a560e81b8152508152508152602001604051806040016040528060405180604001604052806003815260200162e295af60e81b8152508152602001604051806040016040528060038152602001620e295b60ec1b8152508152508152602001604051806040016040528060405180604001604052806003815260200162e295a560e81b815250815260200160405180604001604052806003815260200162e295a560e81b8152508152508152602001604051806040016040528060405180604001604052806002815260200161c39760f01b815250815260200160405180604001604052806002815260200161c39760f01b8152508152508152602001604051806040016040528060405180604001604052806003815260200162efbc8b60e81b815250815260200160405180604001604052806003815260200162efbc8b60e81b81525081525081526020016040518060400160405280604051806040016040528060018152602001601f60f91b8152508152602001604051806040016040528060018152602001600f60fa1b8152508152508152602001604051806040016040528060405180604001604052806002815260200161cb8760f01b815250815260200160405180604001604052806002815260200161cb8760f01b8152508152508152602001604051806040016040528060405180604001604052806003815260200162077de560ed1b815250815260200160405180604001604052806003815260200162077de560ed1b815250815250815260200160405180604001604052806040518060400160405280600381526020016201c32760ef1b81525081526020016040518060400160405280600381526020016201c32760ef1b815250815250815260200160405180604001604052806040518060400160405280600581526020016401c501459960df1b815250815260200160405180604001604052806005815260200164e280a2cc8160d81b815250815250815260200160405180604001604052806040518060400160405280600381526020016238a5e560ea1b81525081526020016040518060400160405280600381526020016238a5e560ea1b815250815250815260200160405180604001604052806040518060400160405280600381526020016207059560ed1b81525081526020016040518060400160405280600381526020016207059560ed1b8152508152508152602001604051806040016040528060405180604001604052806003815260200162e2978f60e81b815250815260200160405180604001604052806003815260200162e2978f60e81b815250815250815250905060006033846132ab9190613fac565b90508181603381106122a257634e487b7160e01b600052603260045260246000fd5b604080516105a081018252600061058082018181528252825180840184526001808252601760f91b6020838101919091528085019290925284518086018652818152605f60f81b818401528486015284518086018652818152602d60f81b8184015260608581019190915285518087018752600380825262e296bd60e81b8286015260808701919091528651808801885281815262e3878160e81b8186015260a08701528651808801885281815262e1b4a560e81b81860181905260c088019190915287518089018952600280825261cf8960f01b8288015260e08901919091528851808a018a5283815262e280bf60e81b818801526101008901528851808a018a528381526277dc5b60e91b818801526101208901528851808a018a5283815262e297a160e81b818801526101408901528851808a018a5283815262725d5d60e91b818801526101608901528851808a018a528381526201c51160ef1b818801526101808901528851808a018a52600681527fe280bfe280bf0000000000000000000000000000000000000000000000000000818801526101a08901528851808a018a528381526271c1d760e91b818801526101c08901528851808a018a5283815262e296bf60e81b818801526101e08901528851808a018a528381526270cbd160e91b818801526102008901528851808a018a5283815262ea92b360e81b818801526102208901528851808a018a52818152616b4560f11b818801526102408901528851808a018a5281815261ceb560f01b818801526102608901528851808a018a5281815261d0b760f01b818801526102808901528851808a018a5281815261342560f21b818801526102a08901528851808a018a52858152600360fc1b818801526102c08901528851808a018a52838152623bee6360ea1b818801526102e08901528851808a018a52838152621c707360eb1b818801526103008901528851808a018a528381526271464960e91b818801526103208901528851808a018a528381526273cdc560e91b818801526103408901528851808a018a5283815262e79abf60e81b818801526103608901528851808a018a5283815262e296b360e81b818801526103808901528851808a018a5283815262efb98f60e81b818801526103a08901528851808a018a5283815262efbe9b60e81b818801526103c08901528851808a018a52858152602f60f91b818801526103e08901528851808a018a52948552607760f81b858701526104008801949094528751808901895282815262e296a160e81b818701526104208801528751808901895282815262efb8bf60e81b8187015261044088015287518089018952828152623bef6960ea1b81870152610460880152875180890189528281526277decf60e91b81870152610480880152875180890189528281526271c04160e91b818701526104a08801528751808901895284815261654b60f11b818701526104c088015287518089018952828152808601919091526104e087015286518088018852600581527f28efbdb429000000000000000000000000000000000000000000000000000000818601526105008701528651808801885283815261c39760f01b81860152610520870152865180880188529081526270c35d60e91b8185015261054086015285518087019096529085526119d360f31b918501919091526105608301939093526137b4602c85613fac565b90508181602c81106122a257634e487b7160e01b600052603260045260246000fd5b60006001600160a01b0384163b1561392e57604051630a85bd0160e11b81526001600160a01b0385169063150b7a029061381a903390899088908890600401613e98565b602060405180830381600087803b15801561383457600080fd5b505af1925050508015613864575060408051601f3d908101601f1916820190925261386191810190613d58565b60015b613914573d808015613892576040519150601f19603f3d011682016040523d82523d6000602084013e613897565b606091505b50805161390c5760405162461bcd60e51b815260206004820152603260248201527f4552433732313a207472616e7366657220746f206e6f6e20455243373231526560448201527f63656976657220696d706c656d656e746572000000000000000000000000000060648201526084016104e7565b805181602001fd5b6001600160e01b031916630a85bd0160e11b149050610975565b506001949350505050565b6001600160a01b03821661398f5760405162461bcd60e51b815260206004820181905260248201527f4552433732313a206d696e7420746f20746865207a65726f206164647265737360448201526064016104e7565b6000818152600260205260409020546001600160a01b0316156139f45760405162461bcd60e51b815260206004820152601c60248201527f4552433732313a20746f6b656e20616c7265616479206d696e7465640000000060448201526064016104e7565b613a0060008383611a3c565b6001600160a01b0382166000908152600360205260408120805460019290613a29908490613ee7565b909155505060008181526002602052604080822080546001600160a01b0319166001600160a01b03861690811790915590518392907fddf252ad1be2c89b69c2b068fc378daa952ba7f163c4a11628f55a4df523b3ef908290a45050565b828054613a9390613f56565b90600052602060002090601f016020900481019282613ab55760008555613afb565b82601f10613ace57805160ff1916838001178555613afb565b82800160010185558215613afb579182015b82811115613afb578251825591602001919060010190613ae0565b50613b07929150613b32565b5090565b60405180604001604052806002905b6060815260200190600190039081613b1a5790505090565b5b80821115613b075760008155600101613b33565b600067ffffffffffffffff80841115613b6257613b62613fec565b604051601f8501601f19908116603f01168101908282118183101715613b8a57613b8a613fec565b81604052809350858152868686011115613ba357600080fd5b858560208301376000602087830101525050509392505050565b80356001600160a01b0381168114613bd457600080fd5b919050565b600060208284031215613bea578081fd5b610e8182613bbd565b60008060408385031215613c05578081fd5b613c0e83613bbd565b9150613c1c60208401613bbd565b90509250929050565b600080600060608486031215613c39578081fd5b613c4284613bbd565b9250613c5060208501613bbd565b9150604084013590509250925092565b60008060008060808587031215613c75578081fd5b613c7e85613bbd565b9350613c8c60208601613bbd565b925060408501359150606085013567ffffffffffffffff811115613cae578182fd5b8501601f81018713613cbe578182fd5b613ccd87823560208401613b47565b91505092959194509250565b60008060408385031215613ceb578182fd5b613cf483613bbd565b915060208301358015158114613d08578182fd5b809150509250929050565b60008060408385031215613d25578182fd5b613d2e83613bbd565b946020939093013593505050565b600060208284031215613d4d578081fd5b8135610e8181614002565b600060208284031215613d69578081fd5b8151610e8181614002565b600060208284031215613d85578081fd5b813567ffffffffffffffff811115613d9b578182fd5b8201601f81018413613dab578182fd5b61097584823560208401613b47565b600060208284031215613dcb578081fd5b5035919050565b60008151808452613dea816020860160208601613f2a565b601f01601f19169290920160200192915050565b60008351613e10818460208801613f2a565b835190830190613e24818360208801613f2a565b01949350505050565b60008651613e3f818460208b01613f2a565b865190830190613e53818360208b01613f2a565b8651910190613e66818360208a01613f2a565b8551910190613e79818360208901613f2a565b8451910190613e8c818360208801613f2a565b01979650505050505050565b60006001600160a01b03808716835280861660208401525083604083015260806060830152613eca6080830184613dd2565b9695505050505050565b602081526000610e816020830184613dd2565b60008219821115613efa57613efa613fc0565b500190565b600082613f0e57613f0e613fd6565b500490565b600082821015613f2557613f25613fc0565b500390565b60005b83811015613f45578181015183820152602001613f2d565b83811115610d995750506000910152565b600181811c90821680613f6a57607f821691505b60208210811415613f8b57634e487b7160e01b600052602260045260246000fd5b50919050565b6000600019821415613fa557613fa5613fc0565b5060010190565b600082613fbb57613fbb613fd6565b500690565b634e487b7160e01b600052601160045260246000fd5b634e487b7160e01b600052601260045260246000fd5b634e487b7160e01b600052604160045260246000fd5b6001600160e01b03198116811461401857600080fd5b5056fea164736f6c6343000804000a",
  "devdoc": {
    "kind": "dev",
    "methods": {
      "approve(address,uint256)": {
        "details": "See {IERC721-approve}."
      },
      "balanceOf(address)": {
        "details": "See {IERC721-balanceOf}."
      },
      "getApproved(uint256)": {
        "details": "See {IERC721-getApproved}."
      },
      "isApprovedForAll(address,address)": {
        "details": "See {IERC721-isApprovedForAll}."
      },
      "name()": {
        "details": "See {IERC721Metadata-name}."
      },
      "owner()": {
        "details": "Returns the address of the current owner."
      },
      "ownerOf(uint256)": {
        "details": "See {IERC721-ownerOf}."
      },
      "renounceOwnership()": {
        "details": "Leaves the contract without owner. It will not be possible to call `onlyOwner` functions anymore. Can only be called by the current owner. NOTE: Renouncing ownership will leave the contract without an owner, thereby removing any functionality that is only available to the owner."
      },
      "safeTransferFrom(address,address,uint256)": {
        "details": "See {IERC721-safeTransferFrom}."
      },
      "safeTransferFrom(address,address,uint256,bytes)": {
        "details": "See {IERC721-safeTransferFrom}."
      },
      "setApprovalForAll(address,bool)": {
        "details": "See {IERC721-setApprovalForAll}."
      },
      "symbol()": {
        "details": "See {IERC721Metadata-symbol}."
      },
      "tokenByIndex(uint256)": {
        "details": "See {IERC721Enumerable-tokenByIndex}."
      },
      "tokenOfOwnerByIndex(address,uint256)": {
        "details": "See {IERC721Enumerable-tokenOfOwnerByIndex}."
      },
      "tokenURI(uint256)": {
        "details": "See {IERC721Metadata-tokenURI}."
      },
      "totalSupply()": {
        "details": "See {IERC721Enumerable-totalSupply}."
      },
      "transferFrom(address,address,uint256)": {
        "details": "See {IERC721-transferFrom}."
      },
      "transferOwnership(address)": {
        "details": "Transfers ownership of the contract to a new account (`newOwner`). Can only be called by the current owner."
      }
    },
    "version": 1
  },
  "userdoc": {
    "kind": "user",
    "methods": {},
    "version": 1
  },
  "storageLayout": {
    "storage": [
      {
        "astId": 969,
        "contract": "contracts/AsciiFaces.sol:AsciiFaces",
        "label": "_name",
        "offset": 0,
        "slot": "0",
        "type": "t_string_storage"
      },
      {
        "astId": 971,
        "contract": "contracts/AsciiFaces.sol:AsciiFaces",
        "label": "_symbol",
        "offset": 0,
        "slot": "1",
        "type": "t_string_storage"
      },
      {
        "astId": 975,
        "contract": "contracts/AsciiFaces.sol:AsciiFaces",
        "label": "_owners",
        "offset": 0,
        "slot": "2",
        "type": "t_mapping(t_uint256,t_address)"
      },
      {
        "astId": 979,
        "contract": "contracts/AsciiFaces.sol:AsciiFaces",
        "label": "_balances",
        "offset": 0,
        "slot": "3",
        "type": "t_mapping(t_address,t_uint256)"
      },
      {
        "astId": 983,
        "contract": "contracts/AsciiFaces.sol:AsciiFaces",
        "label": "_tokenApprovals",
        "offset": 0,
        "slot": "4",
        "type": "t_mapping(t_uint256,t_address)"
      },
      {
        "astId": 989,
        "contract": "contracts/AsciiFaces.sol:AsciiFaces",
        "label": "_operatorApprovals",
        "offset": 0,
        "slot": "5",
        "type": "t_mapping(t_address,t_mapping(t_address,t_bool))"
      },
      {
        "astId": 1910,
        "contract": "contracts/AsciiFaces.sol:AsciiFaces",
        "label": "_ownedTokens",
        "offset": 0,
        "slot": "6",
        "type": "t_mapping(t_address,t_mapping(t_uint256,t_uint256))"
      },
      {
        "astId": 1914,
        "contract": "contracts/AsciiFaces.sol:AsciiFaces",
        "label": "_ownedTokensIndex",
        "offset": 0,
        "slot": "7",
        "type": "t_mapping(t_uint256,t_uint256)"
      },
      {
        "astId": 1917,
        "contract": "contracts/AsciiFaces.sol:AsciiFaces",
        "label": "_allTokens",
        "offset": 0,
        "slot": "8",
        "type": "t_array(t_uint256)dyn_storage"
      },
      {
        "astId": 1921,
        "contract": "contracts/AsciiFaces.sol:AsciiFaces",
        "label": "_allTokensIndex",
        "offset": 0,
        "slot": "9",
        "type": "t_mapping(t_uint256,t_uint256)"
      },
      {
        "astId": 7,
        "contract": "contracts/AsciiFaces.sol:AsciiFaces",
        "label": "_owner",
        "offset": 0,
        "slot": "10",
        "type": "t_address"
      },
      {
        "astId": 2931,
        "contract": "contracts/AsciiFaces.sol:AsciiFaces",
        "label": "_tokenIdCounter",
        "offset": 0,
        "slot": "11",
        "type": "t_struct(Counter)2616_storage"
      },
      {
        "astId": 2935,
        "contract": "contracts/AsciiFaces.sol:AsciiFaces",
        "label": "idToSeed",
        "offset": 0,
        "slot": "12",
        "type": "t_mapping(t_uint256,t_uint256)"
      },
      {
        "astId": 2939,
        "contract": "contracts/AsciiFaces.sol:AsciiFaces",
        "label": "seedToId",
        "offset": 0,
        "slot": "13",
        "type": "t_mapping(t_uint256,t_uint256)"
      },
      {
        "astId": 2954,
        "contract": "contracts/AsciiFaces.sol:AsciiFaces",
        "label": "hasSaleStarted",
        "offset": 0,
        "slot": "14",
        "type": "t_bool"
      },
      {
        "astId": 2956,
        "contract": "contracts/AsciiFaces.sol:AsciiFaces",
        "label": "baseURI",
        "offset": 0,
        "slot": "15",
        "type": "t_string_storage"
      }
    ],
    "types": {
      "t_address": {
        "encoding": "inplace",
        "label": "address",
        "numberOfBytes": "20"
      },
      "t_array(t_uint256)dyn_storage": {
        "base": "t_uint256",
        "encoding": "dynamic_array",
        "label": "uint256[]",
        "numberOfBytes": "32"
      },
      "t_bool": {
        "encoding": "inplace",
        "label": "bool",
        "numberOfBytes": "1"
      },
      "t_mapping(t_address,t_bool)": {
        "encoding": "mapping",
        "key": "t_address",
        "label": "mapping(address => bool)",
        "numberOfBytes": "32",
        "value": "t_bool"
      },
      "t_mapping(t_address,t_mapping(t_address,t_bool))": {
        "encoding": "mapping",
        "key": "t_address",
        "label": "mapping(address => mapping(address => bool))",
        "numberOfBytes": "32",
        "value": "t_mapping(t_address,t_bool)"
      },
      "t_mapping(t_address,t_mapping(t_uint256,t_uint256))": {
        "encoding": "mapping",
        "key": "t_address",
        "label": "mapping(address => mapping(uint256 => uint256))",
        "numberOfBytes": "32",
        "value": "t_mapping(t_uint256,t_uint256)"
      },
      "t_mapping(t_address,t_uint256)": {
        "encoding": "mapping",
        "key": "t_address",
        "label": "mapping(address => uint256)",
        "numberOfBytes": "32",
        "value": "t_uint256"
      },
      "t_mapping(t_uint256,t_address)": {
        "encoding": "mapping",
        "key": "t_uint256",
        "label": "mapping(uint256 => address)",
        "numberOfBytes": "32",
        "value": "t_address"
      },
      "t_mapping(t_uint256,t_uint256)": {
        "encoding": "mapping",
        "key": "t_uint256",
        "label": "mapping(uint256 => uint256)",
        "numberOfBytes": "32",
        "value": "t_uint256"
      },
      "t_string_storage": {
        "encoding": "bytes",
        "label": "string",
        "numberOfBytes": "32"
      },
      "t_struct(Counter)2616_storage": {
        "encoding": "inplace",
        "label": "struct Counters.Counter",
        "members": [
          {
            "astId": 2615,
            "contract": "contracts/AsciiFaces.sol:AsciiFaces",
            "label": "_value",
            "offset": 0,
            "slot": "0",
            "type": "t_uint256"
          }
        ],
        "numberOfBytes": "32"
      },
      "t_uint256": {
        "encoding": "inplace",
        "label": "uint256",
        "numberOfBytes": "32"
      }
    }
  }
}